:020000040800F2
:100000000050002021020008270200082B020008EF
:1000100043020008470200085F02000800000000D9
:10002000000000000000000000000000770200084F
:100030007B020008000000007F0200086908000839
:100040009102000891020008910200089102000844
:100050009102000891020008910200089102000834
:100060009102000891020008910200089102000824
:100070009102000891020008910200089102000814
:100080009102000891020008910200089102000804
:1000900091020008910200089102000891020008F4
:1000A00091020008910200089102000891020008E4
:1000B00091020008910200089102000891020008D4
:1000C00091020008910200089102000891020008C4
:1000D00091020008910200089102000891020008B4
:1000E000910200089102000891020008000000003F
:1000F0000000000000000000000000000000000000
:1001000000000000000000005FF808F100B583B0B7
:1001100000F0DEF8304B314A1360314A1360314B46
:10012000314A32498B4204D21168196004330432D7
:10013000F7E72A4B1A682E4B9A4200D0FEE7284B6D
:100140001A682C4B9A42F9D1234B2B4A13602B4A45
:1001500013602B4B02E000221A600433294A9342B9
:10016000F9D3254B1B6813B9244B1B6803B1FEE779
:1001700000F0BAF8694601A800F0A2F8224C234B1F
:10018000E41AA4100025AC4214DC214C214BE41AE3
:10019000A4100025AC4213DC0099019800F0BAFDD0
:1001A00005461D4C1D4BE41AA410002C0EDC2846FD
:1001B00000F084F8154B53F8253098470135E2E7F5
:1001C000144B53F8253098470135E3E7013C134BB6
:1001D00053F824309847E8E7BABADECA0000002096
:1001E000200000200000002008100008240000204B
:1001F00078563412325476982400002030000020C3
:100200002400002034000020BC020008BC020008CA
:10021000BC020008BC020008BC020008BC020008C6
:1002200008B5FFF773FF00BEFEE71EF0040F0CBF1A
:10023000EFF30880EFF309807146124A104700BEC1
:10024000FEE700BEFEE71EF0040F0CBFEFF30880D0
:10025000EFF3098071460C4A104700BEFEE71EF01E
:10026000040F0CBFEFF30880EFF309807146074AD3
:10027000104700BEFEE700BEFEE700BEFEE700BE80
:10028000FEE770473F0200085B02000873020008A7
:0402900000BEFEE7C7
:1002940008100008000000202400002008100008B6
:1002A40000000000000000002400002034000020B2
:0802B400000000000000000042
:1002BC00FEE7000001230360014B0B60704700BF99
:1002CC000400002008B500F073F8024A024B9A6053
:1002DC0008BD00BF0000000800ED00E008B500F00C
:1002EC008FF808BD82B00023019300932C4A136849
:1002FC0043F4803313602A4B1B6803F400330093E0
:10030C00019B01330193009B1BB9019BB3F5A06FBB
:10031C00F1D1234B1B6813F4003F06D0012300934B
:10032C00009B012B04D002B0704700230093F7E729
:10033C001C4B1A6842F010021A601A6822F0030271
:10034C001A601A6842F002021A60A3F580535A68C8
:10035C005A605A685A605A6842F480625A605A6805
:10036C0022F47C125A605A6842F4E8125A601A68F5
:10037C0042F080721A600A4B1B6813F0007FFAD0AF
:10038C00074B5A6822F003025A605A6842F0020284
:10039C005A60034B5B6803F00C03082BF9D1C2E7DE
:1003AC00001002400020024008B5FFF79BFF08BD7B
:1003BC0008B5104B1A6842F001021A6059680E4ACF
:1003CC000A405A601A6822F0847222F480321A6051
:1003DC001A6822F480221A605A6822F4FE025A60CB
:1003EC004FF41F029A60FFF7DFFF044B4FF00062DF
:1003FC009A6008BD001002400000FFF800ED00E01C
:10040C001F4B5B6803F00C03042B15D0082B17D083
:10041C001BB11C4B1C4A1A6002E01A4B1A4A1A6098
:10042C00174B5B68C3F30313184AD35CDAB2154954
:10043C000B68D3400B607047124B134A1A60EFE7FE
:10044C000F4A53685268C3F38343023312F4803F5C
:10045C000AD00B4A526812F4003F0BD00C4A02FB34
:10046C0003F3084A1360DBE7094A02FB03F3054A6E
:10047C001360D5E7044A02FB03F3024A1360CFE78B
:10048C00001002401C00002000127A000C0000201A
:10049C0000093D0008B50921022000F0BBF80C4B07
:1004AC009A6842F001029A609A6842F008029A60D7
:1004BC00074B9B6813F0080FFAD1054A936843F079
:1004CC0004039360024B9B6813F0040FFAD108BD30
:1004DC00002401400C4B9A6842F001029A609A6821
:1004EC0042F001029A60084B1B6813F0020FFAD01D
:1004FC00054BD86C1A6822F002021A601A6822F0B6
:10050C0010021A60704700BF0024014008B5012991
:10051C0009D0184B98421ED0174B984220D0174B3D
:10052C00984222D008BD134B98420AD0124B9842E5
:10053C000CD0124B9842F5D10421022000F06AF83D
:10054C00F0E70221084600F065F8EBE703210220F2
:10055C0000F060F8E6E70221084600F081F8E1E7D8
:10056C000321022000F07CF8DCE70421022000F0DB
:10057C0077F8D7E700080140000C0140001001405B
:10058C0070B505460479467901210068FFF7BEFF76
:10059C00A6F10903DBB2022B12D9072C15D9083CA2
:1005AC00E4B229684B68A4000F22A24023EA02039C
:1005BC004B602A68536806FA04F41C43546070BDFF
:1005CC000021022000F026F8E7E729680B68A40058
:1005DC000F22A24023EA02030B602A68136806FA72
:1005EC0004F41C431460EAE7012A04D0012303FA43
:1005FC0001F141617047012303FA01F10161704778
:10060C00034B4FF480321A60043301221A60704796
:10061C00001002401F291CD801280BD010B1022851
:10062C0010D070470B480368012202FA01F11943FC
:10063C000160704708480368012202FA01F119436E
:10064C000160704705480368012202FA01F1194361
:10065C0001607047141002401C1002401810024038
:10066C001F291FD801280CD010B1022812D07047B6
:10067C000D480368012202FA01F123EA010101602D
:10068C0070470A480368012202FA01F123EA0101CA
:10069C000160704706480368012202FA01F123EA5F
:1006AC0001010160704700BF141002401C10024091
:1006BC0018100240012904D0036823F040030360A2
:1006CC007047036843F040030360704708B5012985
:1006DC000AD041B9184B98421ED0184B984220D0E2
:1006EC00174B984222D008BD134B98420AD0134B9B
:1006FC0098420CD0124B9842F5D10F210120FFF7F4
:10070C0089FFF0E70C210220FFF784FFEBE70E21B5
:10071C000120FFF77FFFE6E70C210220FFF7A0FF87
:10072C00E1E70E210120FFF79BFFDCE70F21012001
:10073C00FFF796FFD7E700BF0030014000380040BC
:10074C00003C004010B5044601210068FFF7BEFFD5
:10075C0023799B006279012A08D0022A23D0032A2C
:10076C0006D123F4004343F4806301E023F40043F7
:10077C00A27943EAC203E27943EAC223627A43EAEA
:10078C004203A27A1343227A43EAC213E27A43EA7F
:10079C004223227B43EA0223226813600121206852
:1007AC00FFF788FF10BD43F40043E1E700B589B0C3
:1007BC000D4B019301238DF809308DF80830002280
:1007CC008DF80A208DF80B208DF80D308DF80E3039
:1007DC008DF80C208DF80F308DF8103001A8FFF734
:1007EC00B1FF09B05DF804FB0030014083680B4297
:1007FC0001D1002070470120704770B504460E46A9
:10080C00154603E016F8013BE360013D75B102218A
:10081C002046FFF7EBFF0028F9D0236813F4006F94
:10082C00F0D036F8013BE360023DEFE770BD00000D
:10083C00094B58601A6842F001021A60064B1B689B
:10084C0013F4803FFAD0044B1A6842F001021A608C
:10085C0000225A609A60704710E000E008B50A4B1D
:10086C001B785BB9094B1A6822F002021A601A68ED
:10087C0042F001021A6000225A609A60044B1B6815
:10088C009847024B1B6808BD2900002010E000E0CF
:10089C002C00002000B587B0064B019300238DF887
:1008AC0008308DF8093001A8FFF76AFE07B05DF833
:1008BC0004FB00BF0008014000B587B0064B019354
:1008CC0001238DF8083000238DF8093001A8FFF7BB
:1008DC0057FE07B05DF804FB00080140064B9A6810
:1008EC0022F400629A6003221A6100225A639A6809
:1008FC0022F002029A6070470024014008B5FFF70D
:10090C00EDFFFFF7E7FD08BD064B9A6822F4006285
:10091C009A6018221A6101225A639A6822F0020224
:10092C009A6070470024014008B5FFF7EDFFFFF710
:10093C00D1FD08BD10B582B002AC04F8010D012246
:10094C0006210548FFF750FE012221460348FFF718
:10095C0054FF02B010BD00BF000801400030014040
:10096C0010B50446000AFFF7E5FFE0B2FFF7E2FF1F
:10097C0010BD000010B582B002AC04F8010D0022CD
:10098C0006210548FFF730FE012221460348FFF7F8
:10099C0034FF02B010BD00BF000801400030014020
:1009AC00814205D9934203D9802901D8A02B00D9C3
:1009BC007047F8B51E4617460C4605462A20FFF729
:1009CC00D9FF0020FFF7B6FF2846FFF7B3FF002042
:1009DC00FFF7B0FF2046FFF7ADFF2B20FFF7CAFF54
:1009EC000020FFF7A7FF3846FFF7A4FF0020FFF712
:1009FC00A1FF3046FFF79EFF2C20FFF7BBFFF8BD91
:100A0C0010F0800F01D19F2900D9704710B5144602
:100A1C000A464B1C411CDBB2C9B2FFF7C1FF204692
:100A2C00FFF79EFF10BD000030B595B0144C0F942D
:100A3C0004238DF8403002258DF841500FA8FFF7A4
:100A4C009FFD0A9406238DF82C308DF82D500AA8A2
:100A5C00FFF796FD059407238DF8183009258DF8BE
:100A6C00195005A8FFF78CFD009405238DF8043070
:100A7C008DF805506846FFF783FD15B030BD00BFFB
:100A8C000008014010B5FFF7CFFF1C4C01220421D8
:100A9C002046FFF7A9FD6420FFF7CAFE00220421BF
:100AAC002046FFF7A1FD0120FFF7C2FE0122042121
:100ABC002046FFF799FD6420FFF7BAFE00220421BF
:100ACC002046FFF791FD6420FFF7B2FE01220421BE
:100ADC002046FFF789FD0A48FFF7AAFE1120FFF711
:100AEC0049FF0848FFF7A4FE3A20FFF743FF052013
:100AFC00FFF720FF2920FFF73DFF10BD0008014044
:100B0C00C0D40100F0490200F8B516461D46BDF8E8
:100B1C0018708418013CCB18013BDBB20A46E1B2D9
:100B2C00FFF73EFF002404E03846FFF719FF0134BD
:100B3C00A4B205FB06F39C42F6DBF8BD00B583B00E
:100B4C000090A023802200210846FFF7DDFF03B0B0
:100B5C005DF804FB2DE9F04782B0884691461F46AC
:100B6C00BDF828A01F2813DDC6B2203EF6B2FB004C
:100B7C0007EB47014A00BDF82C10009103F0F80375
:100B8C0002F0FE0249464046FFF7BEFF00252DE06D
:100B9C000026ECE704EB090105EB08005246C9B24C
:100BAC00C0B2FFF72DFF0134E4B2072C1CD806EBC2
:100BBC0046035A00114B13445B5D234113F0010FA4
:100BCC00F1D0012FE6D007FB05F0C0B2404407FB83
:100BDC0004F1C9B24944CDF800A03B463A46C9B22B
:100BEC00C0B2FFF791FFDEE70135EDB2052D01D85C
:100BFC000024DAE702B0BDE8F08700BFA80D0008BA
:100C0C002DE9F04383B00446894690461D46BDF855
:100C1C002870BDF82C600DE0019600972B464246DB
:100C2C004946FFF797FF05EB4503590049445FFA26
:100C3C0081F9013494F900000028EDD103B0BDE82E
:100C4C00F083000030B4184AA2FB00329209174B13
:100C5C00A3FB0254E40804EB84046500521B3032FD
:100C6C000A70134AA2FB00425209A3FB0254E40887
:100C7C0004EB84046500521B30324A70A3FB004223
:100C8C00D20894B2A3FB0453DB0803EB83035D008F
:100C9C00641B30348C7002EB82025300C01A30306B
:100CAC00C87030BC704700BFD34D6210CDCCCCCCDB
:100CBC001F85EB512DE9F04385B00E4691461D463C
:100CCC00BDF83080BDF83470002402948DF80C40CF
:100CDC0002A9FFF7B7FF12E004AB234413F9080C89
:100CEC000197CDF800802B464A463146FFF732FF7C
:100CFC0005EB450359003144CEB20134E4B2042C67
:100D0C00EAD905B0BDE8F083F0B583B0FFF778FC05
:100D1C00FFF7C0FBFFF7BEFDFFF7CEFDFFF746FD6B
:100D2C00FFF7B0FE40F2FF70FFF708FFFFF7E6FD9C
:100D3C0087B2FFF7F9FD86B240F2FF7501951F24CB
:100D4C0000940323002211461148FFF759FF019527
:100D5C00009402231C2200210E48FFF751FF01953D
:100D6C0000940223322200213846FFF7A3FF01959D
:100D7C0000940223552200210748FFF741FF0195FB
:100D8C00009402236E2200213046FFF793FFCDE73B
:100D9C00E80F0008F00F0008FC0F0008000000002E
:100DAC0000005C0000000000060006000000287C2B
:100DBC00287C28005C54FE54740044201008440025
:100DCC002854542050000600000000003844000055
:100DDC000000443800000000020702000000101060
:100DEC007C101000C000000000001010101010004B
:100DFC0040000000000060100C0000007C64544CAB
:100E0C007C00487C40000000645454544800445416
:100E1C0054546C003C20702020005C54545424002A
:100E2C007C5454547400040464140C007C545454C6
:100E3C007C005C5454547C00440000000000C4004E
:100E4C000000000010284400000028282828280052
:100E5C004428100000000804540800007C4454543A
:100E6C005C007C2424247C007C5454546C007C4412
:100E7C00444444007C44444438007C54545444005E
:100E8C007C14141404007C44445474007C10101022
:100E9C007C0044447C444400604040447C007C1012
:100EAC00102844007C40404040007C0810087C0026
:100EBC007C0810207C003844444438007C14141402
:100ECC0008003C2464243C007C14141468005C541A
:100EDC005454740004047C0404007C4040407C00A6
:100EEC000C3040300C003C4030403C004428102872
:100EFC0044000C1060100C004464544C44007C44BE
:100F0C00000000000C1060000000447C0000000099
:100F1C000001000100004040404040400001000042
:100F2C0000007C2424247C007C5454546C007C44AD
:100F3C00444444007C44444438007C54545444009D
:100F4C007C14141404007C44445474007C10101061
:100F5C007C0044447C444400604040447C007C1051
:100F6C00102844007C40404040007C0810087C0065
:100F7C007C0810207C003844444438007C14141441
:100F8C0008003C2464243C007C14141468005C5459
:100F9C005454740004047C0404007C4040407C00E5
:100FAC000C3040300C003C4030403C0044281028B1
:100FBC0044000C1060100C004464544C4400107C31
:100FCC00440000006C0000000000447C1000000095
:100FDC0002010201000000000000000057656C6374
:100FEC006F6D650054656D70657261747572650026
:0C0FFC0048756D656469747900000000A0
:10100800785634122800002000000000000000007C
:1010180000000000010203040607080900A24A04B0
:041028003254769830
:040000050800010DE1
:00000001FF
