:020000040800F2
:100000000050002021020008270200082B020008EF
:1000100043020008470200085F02000800000000D9
:10002000000000000000000000000000770200084F
:100030007B020008000000007F0200088302000825
:100040009102000891020008910200089102000844
:100050009102000891020008910200089102000834
:100060009102000891020008910200089102000824
:100070009102000891020008910200089102000814
:100080009102000891020008910200089102000804
:1000900091020008910200089102000891020008F4
:1000A00091020008910200089102000891020008E4
:1000B00091020008910200089102000891020008D4
:1000C00091020008910200089102000891020008C4
:1000D00091020008910200089102000891020008B4
:1000E000910200089102000891020008000000003F
:1000F0000000000000000000000000000000000000
:1001000000000000000000005FF808F100B583B0B7
:1001100000F0DEF8304B314A1360314A1360314B46
:10012000314A32498B4204D21168196004330432D7
:10013000F7E72A4B1A682E4B9A4200D0FEE7284B6D
:100140001A682C4B9A42F9D1234B2B4A13602B4A45
:1001500013602B4B02E000221A600433294A9342B9
:10016000F9D3254B1B6813B9244B1B6803B1FEE779
:1001700000F0BAF8694601A800F0A2F8224C234B1F
:10018000E41AA4100025AC4214DC214C214BE41AE3
:10019000A4100025AC4213DC0099019800F078FD12
:1001A00005461D4C1D4BE41AA410002C0EDC2846FD
:1001B00000F084F8154B53F8253098470135E2E7F5
:1001C000144B53F8253098470135E3E7013C134BB6
:1001D00053F824309847E8E7BABADECA0000002096
:1001E0002000002000000020480D0008240000200E
:1001F000785634123254769824000020A40000204F
:1002000024000020A8000020BC020008BC02000856
:10021000BC020008BC020008BC020008BC020008C6
:1002200008B5FFF773FF00BEFEE71EF0040F0CBF1A
:10023000EFF30880EFF309807146124A104700BEC1
:10024000FEE700BEFEE71EF0040F0CBFEFF30880D0
:10025000EFF3098071460C4A104700BEFEE71EF01E
:10026000040F0CBFEFF30880EFF309807146074AD3
:10027000104700BEFEE700BEFEE700BEFEE700BE80
:10028000FEE770473F0200085B02000873020008A7
:0402900000BEFEE7C7
:10029400480D00080000002024000020480D00083C
:1002A400000000000000000024000020A80000203E
:0802B400000000000000000042
:1002BC00FEE7000001230360014B0B60704700BF99
:1002CC000400002008B500F073F8024A024B9A6053
:1002DC0008BD00BF0000000800ED00E008B500F00C
:1002EC008FF808BD82B00023019300932C4A136849
:1002FC0043F4803313602A4B1B6803F400330093E0
:10030C00019B01330193009B1BB9019BB3F5A06FBB
:10031C00F1D1234B1B6813F4003F06D0012300934B
:10032C00009B012B04D002B0704700230093F7E729
:10033C001C4B1A6842F010021A601A6822F0030271
:10034C001A601A6842F002021A60A3F580535A68C8
:10035C005A605A685A605A6842F480625A605A6805
:10036C0022F47C125A605A6842F4E8125A601A68F5
:10037C0042F080721A600A4B1B6813F0007FFAD0AF
:10038C00074B5A6822F003025A605A6842F0020284
:10039C005A60034B5B6803F00C03082BF9D1C2E7DE
:1003AC00001002400020024008B5FFF79BFF08BD7B
:1003BC0008B5104B1A6842F001021A6059680E4ACF
:1003CC000A405A601A6822F0847222F480321A6051
:1003DC001A6822F480221A605A6822F4FE025A60CB
:1003EC004FF41F029A60FFF7DFFF044B4FF00062DF
:1003FC009A6008BD001002400000FFF800ED00E01C
:10040C001F4B5B6803F00C03042B15D0082B17D083
:10041C001BB11C4B1C4A1A6002E01A4B1A4A1A6098
:10042C00174B5B68C3F30313184AD35CDAB2154954
:10043C000B68D3400B607047124B134A1A60EFE7FE
:10044C000F4A53685268C3F38343023312F4803F5C
:10045C000AD00B4A526812F4003F0BD00C4A02FB34
:10046C0003F3084A1360DBE7094A02FB03F3054A6E
:10047C001360D5E7044A02FB03F3024A1360CFE78B
:10048C00001002401C00002000127A000C0000201A
:10049C0000093D0008B5012909D0184B98421ED01F
:1004AC00174B984220D0174B984222D008BD134BC3
:1004BC0098420AD0124B98420CD0124B9842F5D16C
:1004CC000F21022000F0EAF9F0E70921022000F0E8
:1004DC00E5F9EBE70A21022000F0E0F9E6E7092153
:1004EC00022000F001FAE1E70A21022000F0FCF9F9
:1004FC00DCE70F21022000F0F7F9D7E700240140D8
:10050C0000280140003C01402DE9F84304460579E0
:10051C0090F8068090F80590C779067A012100685A
:10052C00FFF7B8FFB8F1000F3AD12268936843F493
:10053C0000639360092D3CD82068026905EB4503E4
:10054C000721994022EA0102026121680A6909FA2D
:10055C0003F313430B612268536B06EB8606B5401D
:10056C001D435563002F38D0022F3CD0226893686E
:10057C0043F0010393602268936843F0080393608F
:10058C0023689A6812F0080FFAD19A6842F00402B4
:10059C009A6023689B6813F0040FFAD1BDE8F883C6
:1005AC00B8F1010FC6D12268936823F400639360FD
:1005BC00C0E7112DCFD82068C268A5F10A0303EB60
:1005CC0043030721994022EA0102C2602168CA68EC
:1005DC0009FA03F31343CB60BDE72268936843F039
:1005EC0002039360C2E72268936823F002039360CE
:1005FC00BCE701460268936823F00103936002682C
:10060C00936843F0010393600268936843F001031D
:10061C0093600B681A6812F0020FFAD0D86C1A6843
:10062C0022F002021A600A68136823F010031360A8
:10063C00704700002DE9F84F3148324C0460DFF868
:10064C00D0A0CAF80040DFF8CC90C9F800402E4F7B
:10065C003C602E4E3460DFF8C080C8F800404FF08C
:10066C00000B80F804B001258AF804504FF0020307
:10067C0089F804304FF003033B714FF004033371DE
:10068C004FF0050388F80430082343718AF80530CD
:10069C0089F805307D71757188F8055000F0C2F845
:1006AC002A465946204600F0ECF8504600F0BAF8BD
:1006BC002A462946204600F0E4F8484600F0B2F8F5
:1006CC002A460221204600F0DCF8404600F0AAF849
:1006DC005A460521204600F0D4F8384600F0A2F81E
:1006EC002A460321204600F0CCF8304600F09AF858
:1006FC002A460421204600F0C4F8BDE8F88F00BF5C
:10070C0040000020000801402C0000207C0000204C
:10071C0090000020540000206800002010B5084C08
:10072C0001220321204600F0ACF8012204212046CE
:10073C0000F0A7F800220521204600F0A2F810BD19
:10074C000008014008B501460C2000F061F908BD15
:10075C0038B50546094C01220421204600F091F8D9
:10076C0001220521204600F08CF82846FFF7EAFF0D
:10077C0000220321204600F084F838BD0008014017
:10078C0038B50546094C01220321204600F079F8C2
:10079C0001220521204600F074F82846FFF7D2FF0D
:1007AC0000220421204600F06CF838BD00080140FE
:1007BC0008B5012909D0184B98421ED0174B984206
:1007CC0020D0174B984222D008BD134B98420AD028
:1007DC00124B98420CD0124B9842F5D104210220B6
:1007EC0000F05CF8F0E70221084600F057F8EBE760
:1007FC000321022000F052F8E6E70221084600F03F
:10080C0073F8E1E70321022000F06EF8DCE7042125
:10081C00022000F069F8D7E700080140000C014005
:10082C000010014070B50546047946790121006835
:10083C00FFF7BEFF072C10D9083CE4B229684B68BF
:10084C00A4000F22A24023EA02034B602A685368DB
:10085C0006FA04F41C43546070BD29680B68A400AC
:10086C000F22A24023EA02030B602A68136806FADF
:10087C0004F41C431460EFE78068C84000F00100EA
:10088C007047012A04D0012303FA01F1416170473A
:10089C00012303FA01F10161704700001F291CD8E4
:1008AC0001280BD010B1022810D070470B480368F8
:1008BC00012202FA01F119430160704708480368EC
:1008CC00012202FA01F119430160704705480368DF
:1008DC00012202FA01F11943016070471410024021
:1008EC001C100240181002401F291FD801280CD0E0
:1008FC0010B1022812D070470D480368012202FA89
:10090C0001F123EA0101016070470A4803680122E2
:10091C0002FA01F123EA01010160704706480368FD
:10092C00012202FA01F123EA01010160704700BFC4
:10093C00141002401C100240181002400A4A4FF4D6
:10094C0080331360094B196821F4803119601968E0
:10095C0041F400311960196841F4002119601368E1
:10096C0043F0807313607047001002400410024083
:10097C0000B587B009238DF8093006280CD8224B16
:10098C00019301380B280DD8DFE800F00912161A74
:10099C001E22262A2E32363A1C4B0193F1E70023F5
:1009AC008DF8083001A8FFF73DFF07B05DF804FB98
:1009BC0001238DF80830F5E702238DF80830F1E7B4
:1009CC0003238DF80830EDE706238DF80830E9E7AE
:1009DC0007238DF80830E5E700238DF80830E1E7B0
:1009EC0001238DF80830DDE706238DF80830D9E7B0
:1009FC0007238DF80830D5E708238DF80830D1E7A8
:100A0C0009238DF80830CDE700080140000C0140A7
:100A1C0001380B282ED8DFE800F0060A0E12161942
:100A2C001C1F2225282B4FF08043596370474FF031
:100A3C008043996370474FF08043D96370474FF000
:100A4C008043196470470C4B596370470A4B996388
:100A5C007047094BD9637047074B19647047074BB4
:100A6C0059637047054B99637047044BD9637047C2
:100A7C00024B1964704700BF00040040000800409E
:100A8C0008B5012910D071B9284B984234D0B0F177
:100A9C00804F36D0264B984238D0264B98423AD0CD
:100AAC00254B98423CD008BD204B984210D0B0F159
:100ABC00804F12D01E4B984214D01E4B984216D029
:100ACC001D4B9842EFD103210120FFF7E7FEEAE727
:100ADC000B210220FFF7E2FEE5E700210120FFF7E2
:100AEC00DDFEE0E701210846FFF7D8FEDBE7022137
:100AFC000120FFF7D3FED6E70B210220FFF7F4FE0F
:100B0C00D1E700210120FFF7EFFECCE701210846D9
:100B1C00FFF7EAFEC7E702210120FFF7E5FEC2E777
:100B2C0003210120FFF7E0FEBDE700BF002C0140D0
:100B3C000004004000080040000C004010B50446C2
:100B4C0001210068FFF79CFF6379002B2BD12368F0
:100B5C0001229A622268136843F0800313602268B2
:100B6C00136823F010031360344B4F22DA6223799D
:100B7C00013B032B17D8DFE803F00221364B226828
:100B8C00936923F0700393612268936943F06003C7
:100B9C0093612268936943F0080393612268136A96
:100BAC0043F0010313622268536943F0010353615C
:100BBC002268136843F00103136010BD2268936927
:100BCC0023F4E04393612268936943F4C043936137
:100BDC002268936943F4006393612268136A43F0BB
:100BEC0010031362DFE72268D36923F07003D3612B
:100BFC002268D36943F06003D3612268D36943F060
:100C0C000803D3612268136A43F480731362CAE742
:100C1C002268D36923F4E043D3612268D36943F497
:100C2C00C043D3612268D36943F40063D361226863
:100C3C00136A43F480531362B5E700BF0008004009
:100C4C0000B583B000238DF805308DF8041003280F
:100C5C000DD004280ED0022805D06846FFF76EFF91
:100C6C0003B05DF804FB4FF080430093F5E7034BB2
:100C7C000093F2E7024B0093EFE700BF0004004043
:100C8C000008004010B58AB0FFF758FE274B0593BB
:100C9C0000248DF818408DF8194005A8FFF7C2FD07
:100CAC00234B019308238DF8083001238DF80A306B
:100CBC0003238DF8093002238DF80B308DF80C408E
:100CCC0001A8FFF721FCFFF7B5FC0C20FFF750FE45
:100CDC0004210846FFF7B4FFFFF720FD07E00121D0
:100CEC001448FFF7C9FDB8B92046FFF749FD01A824
:100CFC00FFF77FFC104CA4FB0034C4F30714204610
:100D0C00FFF720FD00210B48FFF7B6FD0028E6D1C8
:100D1C002046FFF71DFDEAE702210648FFF7ACFD70
:100D2C000028E4D1FFF7FAFCE1E700BF000C01401A
:0C0D3C0000240140000801404FECC44EB0
:100D4800785634122800002000000000000000003F
:100D580000000000010203040607080900A24A0473
:040D680032547698F3
:040000050800010DE1
:00000001FF
